S019000050726163615F696E7A796E696572736B612E737265630E
S11300000C9400010C9421010C9421010C94210105
S11300100C9421010C9421010C9421010C942101D4
S11300200C9421010C9421010C9426010C942101BF
S11300300C9421010C9421010C9421010C942101B4
S11300400C9421010C9421010C9421010C942101A4
S11300500C9421010C9421010C9421010C94210194
S11300600C9421010C9421010C9421010C94210184
S11300700C9421010C9421010C9421010C94210174
S11300800C9421010C9421010C9421010C94210164
S11300900C9421010C9421010C9421010C94210154
S11300A00C9421010C9421010C9421010C94210144
S11300B00C9421010C9421010C9421010C94210134
S11300C00C9421010C9421010C9421010C94210124
S11300D00C9421010C9421010C9421010C94210114
S11300E00C9421010C9421010C9421010C94210104
S11300F00C9421010C9421010C9421010C942101F4
S11301000C9421010C9421010C9421010C942101E3
S11301100C9421010C9421010C9421010C942101D3
S11301200C9421010C9421010C9421010C942101C3
S11301300C9421010C9421010C9421010C942101B3
S11301400C9421010C9421010C9421010C942101A3
S11301500C9421010C9421010C9421010C94210193
S11301600C9421010C9421010C9421010C94210183
S11301700C9421010C9421010C9421010C94210173
S11301800C9421010C9421010C9421010C94210163
S11301900C9421010C9421010C9421010C94210153
S11301A00C9421010C9421010C9421010C94210143
S11301B00C9421010C9421010C9421010C94210133
S11301C00C9421010C9421010C9421010C94210123
S11301D00C9421010C9421010C9421010C94210113
S11301E00C9421010C9421010C9421010C94210103
S11301F00C9421010C9421010C9421010C94E00233
S113020011241FBECFEFCDBFDFE5DEBF00E00CBF82
S113021010E2A0E0B0E2ECE8F6E000E00BBF02C0C0
S113022007900D92A839B107D9F720E2A8E9B0E206
S113023001C01D92AE39B207E1F70E9450010C943F
S113024044030C9400000E940A0208951F920F9226
S11302500FB60F9211240BB60F922F933F934F9327
S11302605F936F937F938F939F93AF93BF93EF931A
S1130270FF938EE090E20E94E502FF91EF91BF911F
S1130280AF919F918F917F916F915F914F913F912A
S11302902F910F900BBE0F900FBE0F901F901895CB
S11302A0CF93DF93CDB7DEB76697CDBFDEBF0E9495
S11302B023010E94930286E1EFE3F0E2DE0111964E
S11302C001900D928A95E1F7CE0101960E94E50214
S11302D00E949B01811105C08AE190E20E94E5021F
S11302E004C084E290E20E94E5020E948F0190E043
S11302F00E94F8028FE290E20E94E5028895FACF0C
S113030043E068ED80E490E00E942D028FE080934A
S1130310430080E008958FEF80930206089590E0F3
S113032081E002C0880F9F5F9530E0F38150909187
S11303300806892308958091080685FB882780F99B
S1130340089580E008C0E82FF0E0E05FF94F908165
S1130350986190838F5F8830B0F380E008C0E82F05
S1130360F0E0E05DF94F9081986190838F5F883071
S1130370B0F380E008C0E82FF0E0E05BF94F908133
S1130380986190838F5F8830B0F380E008C0E82FD5
S1130390F0E0E059F94F9081986190838F5F883045
S11303A0B0F380E008C0E82FF0E0E057F94F908107
S11303B0986190838F5F8830B0F380E008C0E82FA5
S11303C0F0E0E055F94F9081986190838F5F883019
S11303D0B0F380E008C0E82FF0E0E051F84F9081DE
S11303E0986190838F5F8830B0F308950E94320241
S11303F008950E94C2020895E0E6F6E084E0828354
S1130400A2E7B6E08C911C9288E0818386830E94E7
S1130410C70208950E94A1010E948B010E941B0241
S11304200E9480010E94F6010E9427020E94F901A5
S11304300E94FC010895E0E5F0E080ED828381EC08
S113044085838091510080FFFCCF80E008957894EB
S113045084E08093A20080E008951BBEFC0164BF89
S113046040830895CF93DF93C0EFD0E082E0888388
S113047041E068ED80EF90E00E942D0284E08883E3
S113048085E88A95F1F7000088E0888380E2888314
S11304908091F10083FFFCCFC0E2D4E018820E9477
S11304A08F0190E09C01220F331F220F331F820F14
S11304B0931F092E000CAA0BBB0B88879987AA8768
S11304C0BB87809121048111FCCFE0E2F4E083E05A
S11304D0828381E08083809121048111FCCFDF91AC
S11304E0CF9108959091F1009923ACF09091F1008F
S11304F090FF04C0882389F082E008958091F10080
S113050081FD0DC0E0EFF0E082E08083818182FF15
S113051008C085E0089581E0089583E0089584E0AB
S1130520089580E0089581E00E947202833091F082
S113053028F4882331F1813031F021C0843089F0EE
S11305408530B1F01CC085E590E20E94E5020E946E
S11305503202089587E690E20E94E5020E94320288
S1130560089586E790E20E94E5020E94320208950F
S113057085E890E20E94E5020E94320208950E94FA
S11305803202089581E08093480080E00895E0EA13
S1130590F9E086E9878383E0868383E2858388E1C3
S11305A0848380E090E280939A2090939B2080E063
S11305B008959091A10995FFFCCF8093A009089517
S11305C00E94D90280E090E008950F931F93CF9387
S11305D08C01C0E003C00E94D902CF5FF801EC0F88
S11305E0F11D80818111F7CFCF911F910F91089553
S11305F0CF93DF93CDB7DEB72997CDBFDEBF4AE0F7
S1130600BE016F5F7F4F0E940F03CE0101960E94CF
S1130610E5022996CDBFDEBFDF91CF910895BB27B8
S11306204A3031F4992322F4BDE2909581959F4F8D
S11306300C941B03BB27FB015527AA27880F991F7E
S1130640AA1FA41710F0A41B83955051B9F7A05DFD
S1130650AA3308F0A95DA193009779F7B111B1937A
S11306601192CB010C943403DC01FC01672F7191CE
S11306707723E1F7329704C07C916D937083629184
S10F0680AE17BF07C8F30895F894FFCF2D
S113068C0000000200000000E002000000000A0D5F
S113069C4920776F6B65207570000A0D536C617679
S11306AC650A0D000A0D4D61737465720A0D000A1A
S11306BC0D4920676F20746F20736C656570000A98
S11306CC0D48656C6C6F2041565220776F726C64C8
S11306DC2021203A000A0D204E6F20706F7765722E
S11306EC206572726F72000A0D204242504F5220E4
S11306FC6572726F72000A0D204242424F442065AB
S113070C72726F72000A0D20584F53434641494C84
S10B071C206572726F72000087
S9030000FC
